{
  "contractName": "KitchenSkreppies",
  "abi": [
    {
      "inputs": [],
      "stateMutability": "nonpayable",
      "type": "constructor"
    },
    {
      "inputs": [],
      "name": "ApprovalCallerNotOwnerNorApproved",
      "type": "error"
    },
    {
      "inputs": [],
      "name": "ApprovalQueryForNonexistentToken",
      "type": "error"
    },
    {
      "inputs": [],
      "name": "BalanceQueryForZeroAddress",
      "type": "error"
    },
    {
      "inputs": [],
      "name": "MintERC2309QuantityExceedsLimit",
      "type": "error"
    },
    {
      "inputs": [],
      "name": "MintToZeroAddress",
      "type": "error"
    },
    {
      "inputs": [],
      "name": "MintZeroQuantity",
      "type": "error"
    },
    {
      "inputs": [
        {
          "internalType": "address",
          "name": "operator",
          "type": "address"
        }
      ],
      "name": "OperatorNotAllowed",
      "type": "error"
    },
    {
      "inputs": [],
      "name": "OwnerQueryForNonexistentToken",
      "type": "error"
    },
    {
      "inputs": [],
      "name": "OwnershipNotInitializedForExtraData",
      "type": "error"
    },
    {
      "inputs": [],
      "name": "TransferCallerNotOwnerNorApproved",
      "type": "error"
    },
    {
      "inputs": [],
      "name": "TransferFromIncorrectOwner",
      "type": "error"
    },
    {
      "inputs": [],
      "name": "TransferToNonERC721ReceiverImplementer",
      "type": "error"
    },
    {
      "inputs": [],
      "name": "TransferToZeroAddress",
      "type": "error"
    },
    {
      "inputs": [],
      "name": "URIQueryForNonexistentToken",
      "type": "error"
    },
    {
      "anonymous": false,
      "inputs": [
        {
          "indexed": true,
          "internalType": "address",
          "name": "owner",
          "type": "address"
        },
        {
          "indexed": true,
          "internalType": "address",
          "name": "approved",
          "type": "address"
        },
        {
          "indexed": true,
          "internalType": "uint256",
          "name": "tokenId",
          "type": "uint256"
        }
      ],
      "name": "Approval",
      "type": "event"
    },
    {
      "anonymous": false,
      "inputs": [
        {
          "indexed": true,
          "internalType": "address",
          "name": "owner",
          "type": "address"
        },
        {
          "indexed": true,
          "internalType": "address",
          "name": "operator",
          "type": "address"
        },
        {
          "indexed": false,
          "internalType": "bool",
          "name": "approved",
          "type": "bool"
        }
      ],
      "name": "ApprovalForAll",
      "type": "event"
    },
    {
      "anonymous": false,
      "inputs": [
        {
          "indexed": true,
          "internalType": "uint256",
          "name": "fromTokenId",
          "type": "uint256"
        },
        {
          "indexed": false,
          "internalType": "uint256",
          "name": "toTokenId",
          "type": "uint256"
        },
        {
          "indexed": true,
          "internalType": "address",
          "name": "from",
          "type": "address"
        },
        {
          "indexed": true,
          "internalType": "address",
          "name": "to",
          "type": "address"
        }
      ],
      "name": "ConsecutiveTransfer",
      "type": "event"
    },
    {
      "anonymous": false,
      "inputs": [
        {
          "indexed": true,
          "internalType": "address",
          "name": "owner",
          "type": "address"
        },
        {
          "indexed": false,
          "internalType": "uint256",
          "name": "amount",
          "type": "uint256"
        }
      ],
      "name": "Mint",
      "type": "event"
    },
    {
      "anonymous": false,
      "inputs": [
        {
          "indexed": true,
          "internalType": "address",
          "name": "previousOwner",
          "type": "address"
        },
        {
          "indexed": true,
          "internalType": "address",
          "name": "newOwner",
          "type": "address"
        }
      ],
      "name": "OwnershipTransferred",
      "type": "event"
    },
    {
      "anonymous": false,
      "inputs": [
        {
          "indexed": true,
          "internalType": "address",
          "name": "from",
          "type": "address"
        },
        {
          "indexed": true,
          "internalType": "address",
          "name": "to",
          "type": "address"
        },
        {
          "indexed": true,
          "internalType": "uint256",
          "name": "tokenId",
          "type": "uint256"
        }
      ],
      "name": "Transfer",
      "type": "event"
    },
    {
      "inputs": [],
      "name": "COST",
      "outputs": [
        {
          "internalType": "uint256",
          "name": "",
          "type": "uint256"
        }
      ],
      "stateMutability": "view",
      "type": "function"
    },
    {
      "inputs": [],
      "name": "MAX_SUPPLY",
      "outputs": [
        {
          "internalType": "uint256",
          "name": "",
          "type": "uint256"
        }
      ],
      "stateMutability": "view",
      "type": "function"
    },
    {
      "inputs": [],
      "name": "OPERATOR_FILTER_REGISTRY",
      "outputs": [
        {
          "internalType": "contract IOperatorFilterRegistry",
          "name": "",
          "type": "address"
        }
      ],
      "stateMutability": "view",
      "type": "function"
    },
    {
      "inputs": [],
      "name": "PER_WALLET",
      "outputs": [
        {
          "internalType": "uint256",
          "name": "",
          "type": "uint256"
        }
      ],
      "stateMutability": "view",
      "type": "function"
    },
    {
      "inputs": [
        {
          "internalType": "address",
          "name": "owner",
          "type": "address"
        }
      ],
      "name": "balanceOf",
      "outputs": [
        {
          "internalType": "uint256",
          "name": "",
          "type": "uint256"
        }
      ],
      "stateMutability": "view",
      "type": "function"
    },
    {
      "inputs": [
        {
          "internalType": "uint256",
          "name": "tokenId",
          "type": "uint256"
        }
      ],
      "name": "getApproved",
      "outputs": [
        {
          "internalType": "address",
          "name": "",
          "type": "address"
        }
      ],
      "stateMutability": "view",
      "type": "function"
    },
    {
      "inputs": [
        {
          "internalType": "address",
          "name": "owner",
          "type": "address"
        },
        {
          "internalType": "address",
          "name": "operator",
          "type": "address"
        }
      ],
      "name": "isApprovedForAll",
      "outputs": [
        {
          "internalType": "bool",
          "name": "",
          "type": "bool"
        }
      ],
      "stateMutability": "view",
      "type": "function"
    },
    {
      "inputs": [],
      "name": "mintOpen",
      "outputs": [
        {
          "internalType": "bool",
          "name": "",
          "type": "bool"
        }
      ],
      "stateMutability": "view",
      "type": "function"
    },
    {
      "inputs": [],
      "name": "name",
      "outputs": [
        {
          "internalType": "string",
          "name": "",
          "type": "string"
        }
      ],
      "stateMutability": "view",
      "type": "function"
    },
    {
      "inputs": [],
      "name": "owner",
      "outputs": [
        {
          "internalType": "address",
          "name": "",
          "type": "address"
        }
      ],
      "stateMutability": "view",
      "type": "function"
    },
    {
      "inputs": [
        {
          "internalType": "uint256",
          "name": "tokenId",
          "type": "uint256"
        }
      ],
      "name": "ownerOf",
      "outputs": [
        {
          "internalType": "address",
          "name": "",
          "type": "address"
        }
      ],
      "stateMutability": "view",
      "type": "function"
    },
    {
      "inputs": [],
      "name": "renounceOwnership",
      "outputs": [],
      "stateMutability": "nonpayable",
      "type": "function"
    },
    {
      "inputs": [
        {
          "internalType": "uint256",
          "name": "tokenId",
          "type": "uint256"
        },
        {
          "internalType": "uint256",
          "name": "salePrice",
          "type": "uint256"
        }
      ],
      "name": "royaltyInfo",
      "outputs": [
        {
          "internalType": "address",
          "name": "",
          "type": "address"
        },
        {
          "internalType": "uint256",
          "name": "",
          "type": "uint256"
        }
      ],
      "stateMutability": "view",
      "type": "function"
    },
    {
      "inputs": [],
      "name": "symbol",
      "outputs": [
        {
          "internalType": "string",
          "name": "",
          "type": "string"
        }
      ],
      "stateMutability": "view",
      "type": "function"
    },
    {
      "inputs": [],
      "name": "totalSupply",
      "outputs": [
        {
          "internalType": "uint256",
          "name": "",
          "type": "uint256"
        }
      ],
      "stateMutability": "view",
      "type": "function"
    },
    {
      "inputs": [
        {
          "internalType": "address",
          "name": "newOwner",
          "type": "address"
        }
      ],
      "name": "transferOwnership",
      "outputs": [],
      "stateMutability": "nonpayable",
      "type": "function"
    },
    {
      "inputs": [
        {
          "internalType": "uint256",
          "name": "amount",
          "type": "uint256"
        }
      ],
      "name": "mint",
      "outputs": [],
      "stateMutability": "payable",
      "type": "function"
    },
    {
      "inputs": [
        {
          "internalType": "address",
          "name": "adress",
          "type": "address"
        },
        {
          "internalType": "uint256",
          "name": "amount",
          "type": "uint256"
        }
      ],
      "name": "ownerMint",
      "outputs": [],
      "stateMutability": "payable",
      "type": "function"
    },
    {
      "inputs": [
        {
          "internalType": "string",
          "name": "_newBaseURI",
          "type": "string"
        }
      ],
      "name": "setBaseUri",
      "outputs": [],
      "stateMutability": "nonpayable",
      "type": "function"
    },
    {
      "inputs": [],
      "name": "flipMint",
      "outputs": [],
      "stateMutability": "nonpayable",
      "type": "function"
    },
    {
      "inputs": [],
      "name": "deleteDefaultRoyalty",
      "outputs": [],
      "stateMutability": "nonpayable",
      "type": "function"
    },
    {
      "inputs": [
        {
          "internalType": "address",
          "name": "_ownerAddr",
          "type": "address"
        }
      ],
      "name": "withdrawBalance",
      "outputs": [],
      "stateMutability": "nonpayable",
      "type": "function"
    },
    {
      "inputs": [
        {
          "internalType": "address",
          "name": "receiver",
          "type": "address"
        },
        {
          "internalType": "uint96",
          "name": "feeNumerator",
          "type": "uint96"
        }
      ],
      "name": "setDefaultRoyalty",
      "outputs": [],
      "stateMutability": "nonpayable",
      "type": "function"
    },
    {
      "inputs": [
        {
          "internalType": "uint256",
          "name": "tokenId",
          "type": "uint256"
        }
      ],
      "name": "tokenURI",
      "outputs": [
        {
          "internalType": "string",
          "name": "",
          "type": "string"
        }
      ],
      "stateMutability": "view",
      "type": "function"
    },
    {
      "inputs": [
        {
          "internalType": "bytes4",
          "name": "interfaceId",
          "type": "bytes4"
        }
      ],
      "name": "supportsInterface",
      "outputs": [
        {
          "internalType": "bool",
          "name": "",
          "type": "bool"
        }
      ],
      "stateMutability": "view",
      "type": "function"
    },
    {
      "inputs": [
        {
          "internalType": "address",
          "name": "operator",
          "type": "address"
        },
        {
          "internalType": "bool",
          "name": "approved",
          "type": "bool"
        }
      ],
      "name": "setApprovalForAll",
      "outputs": [],
      "stateMutability": "nonpayable",
      "type": "function"
    },
    {
      "inputs": [
        {
          "internalType": "address",
          "name": "operator",
          "type": "address"
        },
        {
          "internalType": "uint256",
          "name": "tokenId",
          "type": "uint256"
        }
      ],
      "name": "approve",
      "outputs": [],
      "stateMutability": "payable",
      "type": "function"
    },
    {
      "inputs": [
        {
          "internalType": "address",
          "name": "from",
          "type": "address"
        },
        {
          "internalType": "address",
          "name": "to",
          "type": "address"
        },
        {
          "internalType": "uint256",
          "name": "tokenId",
          "type": "uint256"
        }
      ],
      "name": "transferFrom",
      "outputs": [],
      "stateMutability": "payable",
      "type": "function"
    },
    {
      "inputs": [
        {
          "internalType": "address",
          "name": "from",
          "type": "address"
        },
        {
          "internalType": "address",
          "name": "to",
          "type": "address"
        },
        {
          "internalType": "uint256",
          "name": "tokenId",
          "type": "uint256"
        }
      ],
      "name": "safeTransferFrom",
      "outputs": [],
      "stateMutability": "payable",
      "type": "function"
    },
    {
      "inputs": [
        {
          "internalType": "address",
          "name": "from",
          "type": "address"
        },
        {
          "internalType": "address",
          "name": "to",
          "type": "address"
        },
        {
          "internalType": "uint256",
          "name": "tokenId",
          "type": "uint256"
        },
        {
          "internalType": "bytes",
          "name": "data",
          "type": "bytes"
        }
      ],
      "name": "safeTransferFrom",
      "outputs": [],
      "stateMutability": "payable",
      "type": "function"
    }
  ],
  "bytecode": "0x6080604052600a805460ff60a01b191690553480156200001e57600080fd5b50733cc6cdda760b79bafa08df41ecfa224f810dceb66001604051806040016040528060118152602001704b69746368656e20536b7265707069657360781b815250604051806040016040528060028152602001614b5360f01b81525081600290816200008c91906200047e565b5060036200009b82826200047e565b50600160005550506daaeb6d7670e522a718067333cd4e3b15620001e85780156200013657604051633e9f1edf60e11b81523060048201526001600160a01b03831660248201526daaeb6d7670e522a718067333cd4e90637d3e3dbe906044015b600060405180830381600087803b1580156200011757600080fd5b505af11580156200012c573d6000803e3d6000fd5b50505050620001e8565b6001600160a01b03821615620001875760405163a0af290360e01b81523060048201526001600160a01b03831660248201526daaeb6d7670e522a718067333cd4e9063a0af290390604401620000fc565b604051632210724360e11b81523060048201526daaeb6d7670e522a718067333cd4e90634420e48690602401600060405180830381600087803b158015620001ce57600080fd5b505af1158015620001e3573d6000803e3d6000fd5b505050505b50620001f69050336200020a565b62000204336101f46200025c565b6200054a565b600a80546001600160a01b038381166001600160a01b0319831681179093556040519116919082907f8be0079c531659141344cd1fd0a4f28419497f9722a3daafe3b4186f6b6457e090600090a35050565b6200026662000276565b620002728282620002d8565b5050565b600a546001600160a01b03163314620002d65760405162461bcd60e51b815260206004820181905260248201527f4f776e61626c653a2063616c6c6572206973206e6f7420746865206f776e657260448201526064015b60405180910390fd5b565b6127106001600160601b0382161115620003485760405162461bcd60e51b815260206004820152602a60248201527f455243323938313a20726f79616c7479206665652077696c6c206578636565646044820152692073616c65507269636560b01b6064820152608401620002cd565b6001600160a01b038216620003a05760405162461bcd60e51b815260206004820152601960248201527f455243323938313a20696e76616c6964207265636569766572000000000000006044820152606401620002cd565b604080518082019091526001600160a01b039092168083526001600160601b039091166020909201829052600160a01b90910217600855565b634e487b7160e01b600052604160045260246000fd5b600181811c908216806200040457607f821691505b6020821081036200042557634e487b7160e01b600052602260045260246000fd5b50919050565b601f8211156200047957600081815260208120601f850160051c81016020861015620004545750805b601f850160051c820191505b81811015620004755782815560010162000460565b5050505b505050565b81516001600160401b038111156200049a576200049a620003d9565b620004b281620004ab8454620003ef565b846200042b565b602080601f831160018114620004ea5760008415620004d15750858301515b600019600386901b1c1916600185901b17855562000475565b600085815260208120601f198616915b828110156200051b57888601518255948401946001909101908401620004fa565b50858210156200053a5787850151600019600388901b60f8161c191681555b5050505050600190811b01905550565b611ad3806200055a6000396000f3fe6080604052600436106101cd5760003560e01c806370a08231116100f7578063a22cb46511610095578063c87b56dd11610064578063c87b56dd146104e1578063d2ed5c5914610501578063e985e9c514610516578063f2fde38b1461053657600080fd5b8063a22cb4651461047e578063aa1b103f1461049e578063b88d4fde146104b3578063bf8fbbd2146104c657600080fd5b80638da5cb5b116100d15780638da5cb5b1461041857806395d89b4114610436578063a0712d681461044b578063a0bcfc7f1461045e57600080fd5b806370a08231146103c3578063715018a6146103e3578063756af45f146103f857600080fd5b806324bbd0491161016f57806341f434341161013e57806341f434341461035b57806342842e0e1461037d578063484b973c146103905780636352211e146103a357600080fd5b806324bbd049146102d05780632a55205a146102f157806332cb6b0c146103305780633708b2dd1461034657600080fd5b8063081812fc116101ab578063081812fc1461024b578063095ea7b31461028357806318160ddd1461029657806323b872dd146102bd57600080fd5b806301ffc9a7146101d257806304634d8d1461020757806306fdde0314610229575b600080fd5b3480156101de57600080fd5b506101f26101ed3660046114d9565b610556565b60405190151581526020015b60405180910390f35b34801561021357600080fd5b50610227610222366004611512565b610576565b005b34801561023557600080fd5b5061023e61058c565b6040516101fe91906115a5565b34801561025757600080fd5b5061026b6102663660046115b8565b61061e565b6040516001600160a01b0390911681526020016101fe565b6102276102913660046115d1565b610662565b3480156102a257600080fd5b5060015460005403600019015b6040519081526020016101fe565b6102276102cb3660046115fb565b61067b565b3480156102dc57600080fd5b50600a546101f290600160a01b900460ff1681565b3480156102fd57600080fd5b5061031161030c366004611637565b6106a6565b604080516001600160a01b0390931683526020830191909152016101fe565b34801561033c57600080fd5b506102af610e3481565b34801561035257600080fd5b506102af600581565b34801561036757600080fd5b5061026b6daaeb6d7670e522a718067333cd4e81565b61022761038b3660046115fb565b610752565b61022761039e3660046115d1565b610777565b3480156103af57600080fd5b5061026b6103be3660046115b8565b6107e2565b3480156103cf57600080fd5b506102af6103de366004611659565b6107ed565b3480156103ef57600080fd5b5061022761083c565b34801561040457600080fd5b50610227610413366004611659565b610850565b34801561042457600080fd5b50600a546001600160a01b031661026b565b34801561044257600080fd5b5061023e610890565b6102276104593660046115b8565b61089f565b34801561046a57600080fd5b50610227610479366004611674565b610a3e565b34801561048a57600080fd5b506102276104993660046116f4565b610a53565b3480156104aa57600080fd5b50610227610a67565b6102276104c1366004611736565b610a79565b3480156104d257600080fd5b506102af660cca2e5131000081565b3480156104ed57600080fd5b5061023e6104fc3660046115b8565b610aa6565b34801561050d57600080fd5b50610227610b2a565b34801561052257600080fd5b506101f2610531366004611812565b610b53565b34801561054257600080fd5b50610227610551366004611659565b610b81565b600061056182610bfa565b80610570575061057082610c48565b92915050565b61057e610c7d565b6105888282610cd7565b5050565b60606002805461059b90611845565b80601f01602080910402602001604051908101604052809291908181526020018280546105c790611845565b80156106145780601f106105e957610100808354040283529160200191610614565b820191906000526020600020905b8154815290600101906020018083116105f757829003601f168201915b5050505050905090565b600061062982610dd4565b610646576040516333d1c03960e21b815260040160405180910390fd5b506000908152600660205260409020546001600160a01b031690565b8161066c81610e09565b6106768383610ec2565b505050565b826001600160a01b03811633146106955761069533610e09565b6106a0848484610f62565b50505050565b60008281526009602090815260408083208151808301909252546001600160a01b038116808352600160a01b9091046001600160601b031692820192909252829161071b5750604080518082019091526008546001600160a01b0381168252600160a01b90046001600160601b031660208201525b60208101516000906127109061073a906001600160601b031687611895565b61074491906118ac565b915196919550909350505050565b826001600160a01b038116331461076c5761076c33610e09565b6106a08484846110fb565b61077f610c7d565b610e34816107906000546000190190565b61079a91906118ce565b11156107d85760405162461bcd60e51b815260206004820152600860248201526714d3d3110813d55560c21b60448201526064015b60405180910390fd5b6105888282611116565b600061057082611214565b60006001600160a01b038216610816576040516323d3ad8160e21b815260040160405180910390fd5b506001600160a01b031660009081526005602052604090205467ffffffffffffffff1690565b610844610c7d565b61084e6000611283565b565b610858610c7d565b60405147906001600160a01b0383169082156108fc029083906000818181858888f19350505050158015610676573d6000803e3d6000fd5b60606003805461059b90611845565b600a54600160a01b900460ff166108eb5760405162461bcd60e51b815260206004820152601060248201526f135a5b9d081b9bdd081cdd185c9d195960821b60448201526064016107cf565b6005816108f7336107ed565b61090191906118ce565b11156109485760405162461bcd60e51b8152602060048201526016602482015275115e18d959591cc81b585e081c195c881dd85b1b195d60521b60448201526064016107cf565b610e34816109596000546000190190565b61096391906118ce565b111561099c5760405162461bcd60e51b815260206004820152600860248201526714d3d3110813d55560c21b60448201526064016107cf565b346109ae82660cca2e51310000611895565b11156109fc5760405162461bcd60e51b815260206004820152601760248201527f496e73756666696369656e742066756e64732073656e7400000000000000000060448201526064016107cf565b610a063382611116565b60405181815233907f0f6798a560793a54c3bcfe86a93cde1e73087d944c0ea20544137d41213968859060200160405180910390a250565b610a46610c7d565b600b610676828483611927565b81610a5d81610e09565b61067683836112d5565b610a6f610c7d565b61084e6000600855565b836001600160a01b0381163314610a9357610a9333610e09565b610a9f85858585611341565b5050505050565b6060610ab182610dd4565b610ace57604051630a14c4b560e41b815260040160405180910390fd5b6000610ad8611385565b90508051600003610af85760405180602001604052806000815250610b23565b80610b0284611394565b604051602001610b139291906119e7565b6040516020818303038152906040525b9392505050565b610b32610c7d565b600a805460ff60a01b198116600160a01b9182900460ff1615909102179055565b6001600160a01b03918216600090815260076020908152604080832093909416825291909152205460ff1690565b610b89610c7d565b6001600160a01b038116610bee5760405162461bcd60e51b815260206004820152602660248201527f4f776e61626c653a206e6577206f776e657220697320746865207a65726f206160448201526564647265737360d01b60648201526084016107cf565b610bf781611283565b50565b60006301ffc9a760e01b6001600160e01b031983161480610c2b57506380ac58cd60e01b6001600160e01b03198316145b806105705750506001600160e01b031916635b5e139f60e01b1490565b60006001600160e01b0319821663152a902d60e11b148061057057506301ffc9a760e01b6001600160e01b0319831614610570565b600a546001600160a01b0316331461084e5760405162461bcd60e51b815260206004820181905260248201527f4f776e61626c653a2063616c6c6572206973206e6f7420746865206f776e657260448201526064016107cf565b6127106001600160601b0382161115610d455760405162461bcd60e51b815260206004820152602a60248201527f455243323938313a20726f79616c7479206665652077696c6c206578636565646044820152692073616c65507269636560b01b60648201526084016107cf565b6001600160a01b038216610d9b5760405162461bcd60e51b815260206004820152601960248201527f455243323938313a20696e76616c69642072656365697665720000000000000060448201526064016107cf565b604080518082019091526001600160a01b039092168083526001600160601b039091166020909201829052600160a01b90910217600855565b600081600111158015610de8575060005482105b8015610570575050600090815260046020526040902054600160e01b161590565b6daaeb6d7670e522a718067333cd4e3b15610bf757604051633185c44d60e21b81523060048201526001600160a01b03821660248201526daaeb6d7670e522a718067333cd4e9063c617113490604401602060405180830381865afa158015610e76573d6000803e3d6000fd5b505050506040513d601f19601f82011682018060405250810190610e9a9190611a26565b610bf757604051633b79c77360e21b81526001600160a01b03821660048201526024016107cf565b6000610ecd826107e2565b9050336001600160a01b03821614610f0657610ee98133610b53565b610f06576040516367d9dca160e11b815260040160405180910390fd5b60008281526006602052604080822080546001600160a01b0319166001600160a01b0387811691821790925591518593918516917f8c5be1e5ebec7d5bd14f71427d1e84f3dd0314c0f7b2291e5b200ac8c7c3b92591a4505050565b6000610f6d82611214565b9050836001600160a01b0316816001600160a01b031614610fa05760405162a1148160e81b815260040160405180910390fd5b60008281526006602052604090208054338082146001600160a01b03881690911417610fed57610fd08633610b53565b610fed57604051632ce44b5f60e11b815260040160405180910390fd5b6001600160a01b03851661101457604051633a954ecd60e21b815260040160405180910390fd5b801561101f57600082555b6001600160a01b038681166000908152600560205260408082208054600019019055918716808252919020805460010190554260a01b17600160e11b17600085815260046020526040812091909155600160e11b841690036110b1576001840160008181526004602052604081205490036110af5760005481146110af5760008181526004602052604090208490555b505b83856001600160a01b0316876001600160a01b03167fddf252ad1be2c89b69c2b068fc378daa952ba7f163c4a11628f55a4df523b3ef60405160405180910390a45b505050505050565b61067683838360405180602001604052806000815250610a79565b600080549082900361113b5760405163b562e8dd60e01b815260040160405180910390fd5b6001600160a01b03831660008181526005602090815260408083208054680100000000000000018802019055848352600490915281206001851460e11b4260a01b178317905582840190839083907fddf252ad1be2c89b69c2b068fc378daa952ba7f163c4a11628f55a4df523b3ef8180a4600183015b8181146111ea57808360007fddf252ad1be2c89b69c2b068fc378daa952ba7f163c4a11628f55a4df523b3ef600080a46001016111b2565b508160000361120b57604051622e076360e81b815260040160405180910390fd5b60005550505050565b6000818060011161126a5760005481101561126a5760008181526004602052604081205490600160e01b82169003611268575b80600003610b23575060001901600081815260046020526040902054611247565b505b604051636f96cda160e11b815260040160405180910390fd5b600a80546001600160a01b038381166001600160a01b0319831681179093556040519116919082907f8be0079c531659141344cd1fd0a4f28419497f9722a3daafe3b4186f6b6457e090600090a35050565b3360008181526007602090815260408083206001600160a01b03871680855290835292819020805460ff191686151590811790915590519081529192917f17307eab39ab6107e8899845ad3d59bd9653f200f220920489ca2b5937696c31910160405180910390a35050565b61134c84848461067b565b6001600160a01b0383163b156106a057611368848484846113d8565b6106a0576040516368d2bf6b60e11b815260040160405180910390fd5b6060600b805461059b90611845565b606060a06040510180604052602081039150506000815280825b600183039250600a81066030018353600a9004806113ae5750819003601f19909101908152919050565b604051630a85bd0160e11b81526000906001600160a01b0385169063150b7a029061140d903390899088908890600401611a43565b6020604051808303816000875af1925050508015611448575060408051601f3d908101601f1916820190925261144591810190611a80565b60015b6114a6573d808015611476576040519150601f19603f3d011682016040523d82523d6000602084013e61147b565b606091505b50805160000361149e576040516368d2bf6b60e11b815260040160405180910390fd5b805181602001fd5b6001600160e01b031916630a85bd0160e11b149050949350505050565b6001600160e01b031981168114610bf757600080fd5b6000602082840312156114eb57600080fd5b8135610b23816114c3565b80356001600160a01b038116811461150d57600080fd5b919050565b6000806040838503121561152557600080fd5b61152e836114f6565b915060208301356001600160601b038116811461154a57600080fd5b809150509250929050565b60005b83811015611570578181015183820152602001611558565b50506000910152565b60008151808452611591816020860160208601611555565b601f01601f19169290920160200192915050565b602081526000610b236020830184611579565b6000602082840312156115ca57600080fd5b5035919050565b600080604083850312156115e457600080fd5b6115ed836114f6565b946020939093013593505050565b60008060006060848603121561161057600080fd5b611619846114f6565b9250611627602085016114f6565b9150604084013590509250925092565b6000806040838503121561164a57600080fd5b50508035926020909101359150565b60006020828403121561166b57600080fd5b610b23826114f6565b6000806020838503121561168757600080fd5b823567ffffffffffffffff8082111561169f57600080fd5b818501915085601f8301126116b357600080fd5b8135818111156116c257600080fd5b8660208285010111156116d457600080fd5b60209290920196919550909350505050565b8015158114610bf757600080fd5b6000806040838503121561170757600080fd5b611710836114f6565b9150602083013561154a816116e6565b634e487b7160e01b600052604160045260246000fd5b6000806000806080858703121561174c57600080fd5b611755856114f6565b9350611763602086016114f6565b925060408501359150606085013567ffffffffffffffff8082111561178757600080fd5b818701915087601f83011261179b57600080fd5b8135818111156117ad576117ad611720565b604051601f8201601f19908116603f011681019083821181831017156117d5576117d5611720565b816040528281528a60208487010111156117ee57600080fd5b82602086016020830137600060208483010152809550505050505092959194509250565b6000806040838503121561182557600080fd5b61182e836114f6565b915061183c602084016114f6565b90509250929050565b600181811c9082168061185957607f821691505b60208210810361187957634e487b7160e01b600052602260045260246000fd5b50919050565b634e487b7160e01b600052601160045260246000fd5b80820281158282048414176105705761057061187f565b6000826118c957634e487b7160e01b600052601260045260246000fd5b500490565b808201808211156105705761057061187f565b601f82111561067657600081815260208120601f850160051c810160208610156119085750805b601f850160051c820191505b818110156110f357828155600101611914565b67ffffffffffffffff83111561193f5761193f611720565b6119538361194d8354611845565b836118e1565b6000601f841160018114611987576000851561196f5750838201355b600019600387901b1c1916600186901b178355610a9f565b600083815260209020601f19861690835b828110156119b85786850135825560209485019460019092019101611998565b50868210156119d55760001960f88860031b161c19848701351681555b505060018560011b0183555050505050565b600083516119f9818460208801611555565b835190830190611a0d818360208801611555565b64173539b7b760d91b9101908152600501949350505050565b600060208284031215611a3857600080fd5b8151610b23816116e6565b6001600160a01b0385811682528416602082015260408101839052608060608201819052600090611a7690830184611579565b9695505050505050565b600060208284031215611a9257600080fd5b8151610b23816114c356fea264697066735822122026d85185ba7fa85ce7b039c41bbb231fd97620af46c64b4993a168ab6b0df2a164736f6c63430008140033",
  "immutableReferences": {},
  "source": "// SPDX-License-Identifier: MIT\r\npragma solidity ^0.8.9;\r\n\r\nimport \"erc721a/contracts/ERC721A.sol\";\r\nimport \"@openzeppelin/contracts/token/common/ERC2981.sol\";\r\nimport \"operator-filter-registry/src/DefaultOperatorFilterer.sol\";\r\nimport \"@openzeppelin/contracts/access/Ownable.sol\";\r\n\r\ncontract KitchenSkreppies is  ERC721A, ERC2981, DefaultOperatorFilterer, Ownable {\r\n\r\n    uint256 public constant MAX_SUPPLY = 3636;\r\n    uint256 public constant PER_WALLET = 5;\r\n    uint256 public constant COST = 0.0036 ether;\r\n\r\nevent Mint(address indexed owner, uint256 amount);\r\n\r\n    bool public mintOpen = false;\r\n    string private baseUri;\r\n\r\n\r\n    constructor() ERC721A(\"Kitchen Skreppies\", \"KS\") {\r\n        setDefaultRoyalty(msg.sender, 500);\r\n    }\r\n\r\n    function _baseURI() internal view override returns (string memory) {\r\n        return baseUri;\r\n    }\r\n\r\n    function mint(uint256 amount) public payable {\r\n        require(mintOpen, \"Mint not started\");\r\n        require(balanceOf(msg.sender) + amount <= PER_WALLET, \"Exceeds max per wallet\");\r\n        require(_totalMinted() + amount <= MAX_SUPPLY, \"SOLD OUT\");\r\n        require(COST * amount <= msg.value,\"Insufficient funds sent\");\r\n        _mint(msg.sender, amount);\r\n        emit Mint(msg.sender, amount);\r\n    }\r\n\r\n    function ownerMint(address adress, uint256 amount) external payable onlyOwner {\r\n        require(_totalMinted() + amount <= MAX_SUPPLY, \"SOLD OUT\");\r\n        _mint(adress, amount);\r\n    }\r\n\r\n    function _startTokenId() internal view virtual override returns (uint256) {\r\n        return 1;\r\n    }\r\n\r\n    function setBaseUri(string calldata _newBaseURI) external onlyOwner {\r\n        baseUri = _newBaseURI;\r\n    }\r\n\r\n    function flipMint() external onlyOwner {\r\n        mintOpen = !mintOpen;\r\n    }\r\n\r\n    function deleteDefaultRoyalty() public onlyOwner {\r\n        _deleteDefaultRoyalty();\r\n    }\r\n\r\n    function withdrawBalance(address _ownerAddr) external onlyOwner  {\r\n        // Get the balance of the contract and transfer it to the specified address\r\n        uint256 fullBalance = address(this).balance;\r\n        payable (_ownerAddr).transfer(fullBalance);\r\n    }\r\n\r\n    function setDefaultRoyalty(address receiver, uint96 feeNumerator) public onlyOwner {\r\n        _setDefaultRoyalty(receiver, feeNumerator);\r\n    }\r\n\r\n    function tokenURI(uint256 tokenId) public view virtual override returns (string memory) {\r\n        if (!_exists(tokenId)) revert URIQueryForNonexistentToken();\r\n\r\n        string memory baseURI = _baseURI();\r\n        return bytes(baseURI).length != 0 ? string(abi.encodePacked(baseURI, _toString(tokenId), \".json\")) : '';\r\n    }\r\n\r\n    // function _beforeTokenTransfer(address from, address to, uint256 tokenId, uint256 batchSize)\r\n    //     internal\r\n    //     override(ERC721A)\r\n    // {\r\n    //     super._beforeTokenTransfer(from, to, tokenId, batchSize);\r\n    // }\r\n\r\n    // The following functions are overrides required by Solidity.\r\n\r\n    function supportsInterface(bytes4 interfaceId) public view virtual override(ERC721A, ERC2981) returns (bool){\r\n        return ERC721A.supportsInterface(interfaceId) || ERC2981.supportsInterface(interfaceId);\r\n    }\r\n\r\n    function setApprovalForAll(address operator, bool approved) public override onlyAllowedOperatorApproval(operator) {\r\n        super.setApprovalForAll(operator, approved);\r\n    }\r\n\r\n    function approve(address operator, uint256 tokenId) public payable override onlyAllowedOperatorApproval(operator) {\r\n        super.approve(operator, tokenId);\r\n    }\r\n\r\n    function transferFrom(address from, address to, uint256 tokenId) public payable override onlyAllowedOperator(from) {\r\n        super.transferFrom(from, to, tokenId);\r\n    }\r\n\r\n    function safeTransferFrom(address from, address to, uint256 tokenId) public payable override onlyAllowedOperator(from) {\r\n        super.safeTransferFrom(from, to, tokenId);\r\n    }\r\n\r\n    function safeTransferFrom(address from, address to, uint256 tokenId, bytes memory data) public payable override onlyAllowedOperator(from) {\r\n        super.safeTransferFrom(from, to, tokenId, data);\r\n    }\r\n}",
  "sourcePath": "C:\\Users\\Hp\\Desktop\\KitchenSkreppies\\contracts\\KitchenSkreppies.sol",
  "compiler": {
    "name": "solc",
    "version": "0.8.20+commit.a1b79de6.Emscripten.clang"
  },
  "schemaVersion": "3.4.14",
  "updatedAt": "2023-06-28T00:46:43.102Z",
  "devdoc": {
    "errors": {
      "OperatorNotAllowed(address)": [
        {
          "details": "Emitted when an operator is not allowed."
        }
      ]
    },
    "events": {
      "Approval(address,address,uint256)": {
        "details": "Emitted when `owner` enables `approved` to manage the `tokenId` token."
      },
      "ApprovalForAll(address,address,bool)": {
        "details": "Emitted when `owner` enables or disables (`approved`) `operator` to manage all of its assets."
      },
      "ConsecutiveTransfer(uint256,uint256,address,address)": {
        "details": "Emitted when tokens in `fromTokenId` to `toTokenId` (inclusive) is transferred from `from` to `to`, as defined in the [ERC2309](https://eips.ethereum.org/EIPS/eip-2309) standard. See {_mintERC2309} for more details."
      },
      "Transfer(address,address,uint256)": {
        "details": "Emitted when `tokenId` token is transferred from `from` to `to`."
      }
    },
    "kind": "dev",
    "methods": {
      "balanceOf(address)": {
        "details": "Returns the number of tokens in `owner`'s account."
      },
      "getApproved(uint256)": {
        "details": "Returns the account approved for `tokenId` token. Requirements: - `tokenId` must exist."
      },
      "isApprovedForAll(address,address)": {
        "details": "Returns if the `operator` is allowed to manage all of the assets of `owner`. See {setApprovalForAll}."
      },
      "name()": {
        "details": "Returns the token collection name."
      },
      "owner()": {
        "details": "Returns the address of the current owner."
      },
      "ownerOf(uint256)": {
        "details": "Returns the owner of the `tokenId` token. Requirements: - `tokenId` must exist."
      },
      "renounceOwnership()": {
        "details": "Leaves the contract without owner. It will not be possible to call `onlyOwner` functions. Can only be called by the current owner. NOTE: Renouncing ownership will leave the contract without an owner, thereby disabling any functionality that is only available to the owner."
      },
      "royaltyInfo(uint256,uint256)": {
        "details": "Returns how much royalty is owed and to whom, based on a sale price that may be denominated in any unit of exchange. The royalty amount is denominated and should be paid in that same unit of exchange."
      },
      "safeTransferFrom(address,address,uint256)": {
        "details": "Equivalent to `safeTransferFrom(from, to, tokenId, '')`."
      },
      "setApprovalForAll(address,bool)": {
        "details": "Approve or remove `operator` as an operator for the caller. Operators can call {transferFrom} or {safeTransferFrom} for any token owned by the caller. Requirements: - The `operator` cannot be the caller. Emits an {ApprovalForAll} event."
      },
      "symbol()": {
        "details": "Returns the token collection symbol."
      },
      "tokenURI(uint256)": {
        "details": "Returns the Uniform Resource Identifier (URI) for `tokenId` token."
      },
      "totalSupply()": {
        "details": "Returns the total number of tokens in existence. Burned tokens will reduce the count. To get the total number of tokens minted, please see {_totalMinted}."
      },
      "transferFrom(address,address,uint256)": {
        "details": "Transfers `tokenId` from `from` to `to`. Requirements: - `from` cannot be the zero address. - `to` cannot be the zero address. - `tokenId` token must be owned by `from`. - If the caller is not `from`, it must be approved to move this token by either {approve} or {setApprovalForAll}. Emits a {Transfer} event."
      },
      "transferOwnership(address)": {
        "details": "Transfers ownership of the contract to a new account (`newOwner`). Can only be called by the current owner."
      }
    },
    "version": 1
  },
  "userdoc": {
    "errors": {
      "ApprovalCallerNotOwnerNorApproved()": [
        {
          "notice": "The caller must own the token or be an approved operator."
        }
      ],
      "ApprovalQueryForNonexistentToken()": [
        {
          "notice": "The token does not exist."
        }
      ],
      "BalanceQueryForZeroAddress()": [
        {
          "notice": "Cannot query the balance for the zero address."
        }
      ],
      "MintERC2309QuantityExceedsLimit()": [
        {
          "notice": "The `quantity` minted with ERC2309 exceeds the safety limit."
        }
      ],
      "MintToZeroAddress()": [
        {
          "notice": "Cannot mint to the zero address."
        }
      ],
      "MintZeroQuantity()": [
        {
          "notice": "The quantity of tokens minted must be more than zero."
        }
      ],
      "OwnerQueryForNonexistentToken()": [
        {
          "notice": "The token does not exist."
        }
      ],
      "OwnershipNotInitializedForExtraData()": [
        {
          "notice": "The `extraData` cannot be set on an unintialized ownership slot."
        }
      ],
      "TransferCallerNotOwnerNorApproved()": [
        {
          "notice": "The caller must own the token or be an approved operator."
        }
      ],
      "TransferFromIncorrectOwner()": [
        {
          "notice": "The token must be owned by `from`."
        }
      ],
      "TransferToNonERC721ReceiverImplementer()": [
        {
          "notice": "Cannot safely transfer to a contract that does not implement the ERC721Receiver interface."
        }
      ],
      "TransferToZeroAddress()": [
        {
          "notice": "Cannot transfer to the zero address."
        }
      ],
      "URIQueryForNonexistentToken()": [
        {
          "notice": "The token does not exist."
        }
      ]
    },
    "kind": "user",
    "methods": {},
    "version": 1
  }
}